:030000000208C82B
:0C08C800787FE4F6D8FD75810A0208B5BF
:1008B500E4F5A01208D4750AFFAF90120894120847
:0308C5006C80F64E
:0708D400D2A0D2A1C2A222B2
:0508DB00E4FF02089497
:0508E0007FFF020894F7
:10089400C2A27E07EFA806088002C313D8FC1392F5
:1008A400A0C2A1D2A11EC3EE6480948050E6D2A25D
:0108B4002221
:10080000750901E4F508E509F4FF1208630508E538
:1008100008D3940840F0750980E4F508E509F4FF71
:10082000120894E509C31312086A0508E508C39481
:100830000840E9750901E4F508AF091208630508E5
:10084000E508C3940840F2750980E4F508AF091281
:100850000894E509C31312086A0508E508D394084B
:0208600040EB6B
:010862002273
:0D086300120894E50925E0F5097F647E0088
:10087000E4FDFCD3ED9FEC9E5019758901758CFC4D
:10088000758A18D28C308DFDC28CC28D0DBD0001D1
:030890000C80E0F9
:010893002242
:00000001FF
