:0B095000090AFF095CFF095FFF096254
:1008D900E4F508AF09EF4401F50975890175A882A6
:1008E900758AD8758CF0D28CAF09EF30E0FA7B00AD
:1008F9007A00790A12090BAF09EF54FEF509D2AF54
:0209090080E686
:03000B0002092FB8
:10092F00C0E0C0D075D000C007AF09EF4401F50992
:10093F00C28D758A18758CFCC2AFD007D0D0D0E0AD
:01094F003275
:03095C00B2902234
:03095F00B2912230
:03096200B291222D
:10090B008B138A148915AB13AA14A91512088CE939
:10091B004A60101208AC74032515F515E43514F56F
:04092B001480E3222F
:03000000020800F3
:0C080000787FE4F6D8FD758115020847EA
:10088C00BB010789828A830208BB5005E9F802087C
:10089C00B2BBFE05E9F80208C489828A830208CD3E
:0608AC008A838982E473D7
:10080C000208D9E493A3F8E493A34003F68001F221
:10081C0008DFF48029E493A3F85407240CC8C333ED
:10082C00C4540F4420C8834004F456800146F6DFBC
:10083C00E4800B0102040810204080900950E47EF3
:10084C00019360BCA3FF543F30E509541FFEE493B1
:10085C00A360010ECF54C025E060A840B8E493A378
:10086C00FAE493A3F8E493A3C8C582C8CAC583CAA3
:10087C00F0A3C8C582C8CAC583CADFE9DEE780BE5B
:01095B00009B
:0908B200E6FB08E6FA08E6F9226B
:0908BB00E0FBA3E0FAA3E0F9223E
:0908C400E2FB08E2FA08E2F92265
:0C08CD00E493FB740193FA740293F92287
:00000001FF
