:0E098C000C0AFF099BFF097AFF09AF0000006B
:1008D900E4F508AF09EF4401F5097517FFE4F516CA
:1008E9001209A875890175A882758AF0758CD8D204
:1008F9008CAF09EF30E0FA7B007A00790A1209140B
:0B090900AF09EF54FEF509D2AF80E605
:03000B00020938AF
:10093800C0E0C0D075D000C007AF09EF4401F50989
:10094800C28D758AF0758CD8C2AFD007D0D0D0E0F0
:01095800326C
:0D099B000516E516C394644003E4F516222A
:10097A00859018E51865176005AF90120959851812
:01098A001755
:01098B002249
:0109AF002225
:100914008B188A19891AAB18AA19A91A12088CE912
:100924004A60101208AC7403251AF51AE43519F557
:040934001980E32221
:0709A800D2A0D2A1C2A222DD
:10095900C2A27E07EFA806088002C313D8FC13922F
:10096900A0C2A1D2A11EC3EE6480948050E6D2A297
:01097900225B
:03000000020800F3
:0C080000787FE4F6D8FD75811A020847E5
:10088C00BB010789828A830208BB5005E9F802087C
:10089C00B2BBFE05E9F80208C489828A830208CD3E
:0608AC008A838982E473D7
:10080C000208D9E493A3F8E493A34003F68001F221
:10081C0008DFF48029E493A3F85407240CC8C333ED
:10082C00C4540F4420C8834004F456800146F6DFBC
:10083C00E4800B010204081020408090098CE47EB7
:10084C00019360BCA3FF543F30E509541FFEE493B1
:10085C00A360010ECF54C025E060A840B8E493A378
:10086C00FAE493A3F8E493A3C8C582C8CAC583CAA3
:10087C00F0A3C8C582C8CAC583CADFE9DEE780BE5B
:01099A00005C
:0908B200E6FB08E6FA08E6F9226B
:0908BB00E0FBA3E0FAA3E0F9223E
:0908C400E2FB08E2FA08E2F92265
:0C08CD00E493FB740193FA740293F92287
:00000001FF
