:03000000020800F3
:0C080000787FE4F6D8FD758118020847E7
:0E0990000C0AFF09A6FF09ABFF09AC0000002E
:10091600E4F508AF09EF4401F50912099F7589014D
:1009260075A882758AD8758CF0D28CAF09EF30E045
:10093600FA7B007A00790A12094BAF09EF54FEF5EB
:0509460009D2AF80E6BC
:03000B0002096F78
:10096F00C0E0C0D075D000C007AF09EF4401F50952
:10097F00C28D758A18758CFCC2AFD007D0D0D0E06D
:01098F003235
:0509A600AF900208D92A
:0109AB002229
:0109AC002228
:10094B008B168A178918AB16AA17A91812088CE9E7
:10095B004A60101208AC74032518F518E43517F526
:04096B001780E322EC
:07099F00D2A0D2A1C2A222E6
:1008D900C2A27E07EFA806088002C313D8FC1392B0
:1008E900A0C2A1D2A11EC3EE6480948050E6D2A218
:1008F900E4FFFEE4FDFC0DBD00010CBC04F8BDE9FC
:0C090900F50FBF00010EEF642F4E70E7E9
:0109150022BF
:10080C00020916E493A3F8E493A34003F68001F2E3
:10081C0008DFF48029E493A3F85407240CC8C333ED
:10082C00C4540F4420C8834004F456800146F6DFBC
:10083C00E4800B0102040810204080900990E47EB3
:10084C00019360BCA3FF543F30E509541FFEE493B1
:10085C00A360010ECF54C025E060A840B8E493A378
:10086C00FAE493A3F8E493A3C8C582C8CAC583CAA3
:10087C00F0A3C8C582C8CAC583CADFE9DEE780BE5B
:01099E000058
:10088C00BB010789828A830208BB5005E9F802087C
:10089C00B2BBFE05E9F80208C489828A830208CD3E
:0608AC008A838982E473D7
:0908B200E6FB08E6FA08E6F9226B
:0908BB00E0FBA3E0FAA3E0F9223E
:0908C400E2FB08E2FA08E2F92265
:0C08CD00E493FB740193FA740293F92287
:00000001FF
